:020000040800F2
:10000000900600204902000851020008530200082F
:1000100055020008570200085902000800000000BD
:100020000000000000000000000000005B0200086B
:100030005D020008000000005F02000801090008DE
:1000400063020008630200086302000863020008FC
:1000500063020008630200086302000863020008EC
:1000600063020008630200086302000863020008DC
:1000700063020008630200086302000863020008CC
:100080006302000863020008630200080000000029
:1000900000000000000000000000000075050008DE
:1000A00063020008590A000863020008630200089E
:1000B000630200086302000863020008630200088C
:1000C000630200086302000863020008630200087C
:1000D00063020008D50A000863020008000000005F
:1000E00063020008630200086302000800000000C9
:1000F0000000000000000000000000006302000893
:1001000000000000630200086302000863020008A8
:1001100000000000000000000000000000000000DF
:10012000630200086302000863020008630200081B
:100130006302000800000000000000000000000052
:100140000000000000000000000000006302000842
:1001500063020008630200086302000863020008EB
:1001600063020008630200080000000000000000B5
:10017000000000000000000000000000000000007F
:100180000000000063020008000000000000000002
:10019000630200086302000800F002F800F045F86E
:1001A0000AA090E8000C82448344AAF10107DA45D2
:1001B00001D100F03AF8AFF2090EBAE80F0013F0DF
:1001C000010F18BFFB1A43F001031847840C00000D
:1001D000A40C0000103A24BF78C878C1FAD852079E
:1001E00024BF30C830C144BF04680C6070470000B1
:1001F0000023002400250026103A28BF78C1FBD830
:10020000520728BF30C148BF0B6070471FB500F0D0
:10021000FFFD00F04DF904000020002100F0E2FD98
:10022000401C60601FBD10B510BD00F01CF91146E8
:10023000FFF7ECFF00F00EFD00F04CF903B4FFF700
:10024000F2FF03BC00F08EF90948804709480047D7
:10025000FEE7FEE7FEE7FEE7FEE7FEE7FEE7FEE776
:10026000FEE7FEE704480549054A064B70470000D3
:10027000450A00089901000890000020900600201F
:10028000900200209002002070B5064600F014F89D
:100290000468054630460A22002100F011F82C605F
:1002A00070BD0000014A00F043B8000000000020CB
:1002B00070477047704700000048704708000020F2
:1002C0002DE9F04791460F4680460446002614F873
:1002D000015B2DB100F052F80068405DC007F6D117
:1002E0002B2D02D02D2D18D0641E4A4639462046AB
:1002F00000F04CF827B13968A14201D1C7F800805D
:100300004FF0020471050BD54042002803DDFFF7D2
:10031000D3FF0460A007BDE8F08746F48066E4E7F9
:100320000028F8DAFFF7C8FF04606FF00040F2E73A
:100330002DE9F04115460E46040002D12C6804B99F
:100340000BA4204600F081F80444207870B12746C1
:100350003146384600F069F80444207810B1002096
:1003600004F8010B38462C60BDE8F0810027F9E75E
:1003700000000000004870470800002010B500F0A1
:1003800097F8001D10BD00BF5D0A00002DE9F05F69
:10039000824615468B4600270AF10104B9460078CB
:1003A000302801D09DB113E014F8010B0127782803
:1003B00003D0582801D045B10AE00DB1102D07D166
:1003C000002714F8010B102502E0082500E00A259B
:1003D0000026B0460EE005FB080005FB06F10127EC
:1003E0001FFA80F801EB1046B6F5803F00D3B946FE
:1003F00014F8010B294600F05FF80028EBDABBF196
:10040000000F05D00FB1641E00E05446CBF8004049
:10041000B9F1000F06D0FFF74FFF02210160C81E9F
:10042000BDE8F09F48EA0640FAE730B503461D787C
:100430001DB10A4603E0AC4201D1181A30BD12F8D2
:10044000014B002CF7D15B1CF1E730B503461D785A
:100450003DB10A4612F8014B1CB1AC42FAD15B1C0B
:10046000F5E7181A30BD7546FFF784FFAE46050064
:100470006946534620F00700854618B020B5FFF7BF
:10048000F1FEBDE820404FF000064FF000074FF0AE
:1004900000084FF0000BAC46ACE8C009ACE8C0095E
:1004A000ACE8C009ACE8C00921F007018D467047EF
:1004B00000487047280000203A2800D2303820F049
:1004C0002002412A01D3A2F13700884201D34FF024
:1004D000FF30704710B50446AFF300802046BDE8FA
:1004E0001040FFF7ABBE000030B44FF0013C50F8B5
:1004F000042B51F8043BCCFA52F4D51A20D1FCB9A4
:1005000050F8042B51F8043BCCFA52F4D51A17D109
:10051000B4B950F8042B51F8043BCCFA52F4D51A74
:100520000ED16CB950F8042B51F8043BCCFA52F4BC
:10053000D51A05D1002CDAD030BC4FF0000070473E
:1005400029BAB1FA81F111F01801D1F120008440EB
:10055000F2D1CA40CB4012F0FF0213F0FF0330BCCF
:10056000D01A704701491820ABBEFEE726000200F2
:100570007047000043F61441C4F20101086840F0DE
:1005800020000860704700007047000043F630010B
:10059000C4F20201086840F00500086040F600015E
:1005A000C4F20201086840F08060086040F608016B
:1005B000C4F20201086840F04060086040F60C0197
:1005C000C4F20201086840F0806008600021C4F2B3
:1005D0000201086840F0550008600821C4F20201D9
:1005E000086840F0FF0008600C21C4F202010868AE
:1005F00040F055000860704743F63001C4F2020134
:10060000086840F0010008600021C4F20201086897
:1006100020F470100860086840F420100860082179
:10062000C4F20201086840F4701008602421C4F28A
:100630000201086840F070000860086840F4E0605B
:100640000860704780B500F017FA43F64001C4F225
:100650000201086840F00400086040F60001C4F29E
:100660000001086820F00100086040F20400C2F2B6
:10067000000000684DF68362C4F21B32A0FB020248
:100680004FF0FF3000EB924040F62802C4F2000227
:10069000106040F62C02C4F2000244F219101060FF
:1006A00040F61802C4F20002106840F20333984387
:1006B0001060106846F260031843106040F6200294
:1006C000C4F20002106840F01100106040F63402DD
:1006D000C4F200026420106040F63802C4F2000246
:1006E0001060086840F00100086080BD80B586B0E9
:1006F0008DF81700ADF814108DF813209DF8170031
:1007000001460391012804D0FFE70398022823D073
:1007100045E09DF8130060B1FFE71421C4F2020127
:10072000086840F001000860086820F002000860D6
:100730000BE01421C4F20201086840F002000860D6
:10074000086820F001000860FFE79DF81700BDF879
:10075000141000F0CFFA40E09DF8130060B1FFE7FD
:100760001421C4F20201086840F00400086008681F
:1007700020F0080008600BE01421C4F202010868B0
:1007800040F008000860086820F004000860FFE7F7
:100790009DF81700BDF8141000F0ACFA1DE014210C
:1007A000C4F202010191086820F0010008600868A5
:1007B00020F002000860086820F004000860086863
:1007C00020F00800086001200021029100F092FA58
:1007D0000299022000F08EFAFFE706B080BD00000B
:1007E00080B543F60001C4F20201086840F480308D
:1007F0000860FFE743F60000C4F2020000688003CF
:10080000002801D4FFE7F5E743F64001C4F20201F6
:10081000086840F08050086043F60801C4F2020105
:10082000086840F480500860086820F46040086060
:1008300043F60401C4F2020100200860086842F295
:10084000190210430860086840F48000086043F60D
:100850000041C4F20201086840F00300086047F25A
:100860000001C4F20001086840F44040086043F60B
:100870000001C4F20201086840F080700860FFE7E0
:1008800043F60000C4F2020000688001002801D491
:10089000FFE7F5E743F60801C4F20201086840F0FB
:1008A0000200086000F036F880BD000080B582B01C
:1008B000009000980138B0F1807F03D3FFE701205A
:1008C000019019E0009801384EF21401CEF20001B7
:1008D00008604FF0FF300F2100F09AF94EF2180136
:1008E000CEF20001002008604EF21002CEF20002AB
:1008F000072111600190FFE7019802B080BD000060
:1009000040F61401C4F20201086880F40050086047
:100910007047000086B000210591049102200390E9
:100920000291019043F60800C4F20200006800F052
:100930000C0005900598009040B1FFE7009804284E
:100940000ED0FFE70098082814D059E040F20401C7
:10095000C2F2000142F20040C0F2F400086059E027
:1009600040F20401C2F2000147F64000C0F27D10DF
:1009700008604FE043F60400C4F202000168C1F3CE
:1009800080510291006800F03F000190029888B108
:10099000FFE7019947F64000C0F27D10B0FBF1F08F
:1009A00043F60401C4F202010968C1F38811484307
:1009B000049010E0019942F20040C0F2F400B0FB54
:1009C000F1F043F60401C4F202010968C1F3881191
:1009D00048430490FFE743F60400C4F202000068B5
:1009E00000F44031022000EBD130039004980399C9
:1009F000B0FBF1F040F20401C2F20001086009E02E
:100A000040F20401C2F2000142F20040C0F2F400E0
:100A10000860FFE743F60800C4F202000068C0B2B5
:100A2000010940F62A60C0F60000405C0590059A76
:100A300040F20401C2F200010868D040086006B02C
:100A4000704700004EF68851CEF20001086840F46D
:100A500070000860704700001021C4F201010868AE
:100A600020F00100086040F28C01C2F20001086829
:100A7000013008607047000043F63001C4F2020103
:100A8000086840F00200086040F20041C4F2020130
:100A9000086820F470400860086840F4204008604E
:100AA00040F20841C4F20201086840F47040086056
:100AB00040F20C41C4F20201086820F47040086062
:100AC00040F22041C4F20201086840F0085008607A
:100AD0007047000041F20400C4F20100016840F2D6
:100AE0008900C2F20000017000782A2818D1FFE7BF
:100AF00041F20400C4F20100006840F28401C2F235
:100B000000010B6840F27002C2F20002D0540020D3
:100B1000086040F28801C2F200017420087012E0FF
:100B200041F20400C4F20100006840F28401C2F204
:100B300000010B6840F27002C2F20002D054086853
:100B400001300860FFE7704780B582B0FFF754FDC1
:100B5000FFF7E0FE43F64401C4F20201086840F0EA
:100B60001000086041F20C01C4F201010191086813
:100B700020F480500860086840F02C00086041F2C2
:100B80000801C4F201010020086040F23E20086024
:100B9000252000F025F80199086840F4005008600D
:100BA00002B080BD81B00090FFE700980078A8B146
:100BB000FFE7FFE741F20000C4F201000068000611
:100BC000002801D4FFE7F5E70098411C0091007868
:100BD00041F20401C4F201010860E6E701B0704788
:100BE00081B08DF803009DF9030000280ED4FFE7C3
:100BF0009DF9031001F01F02012090404A094EF2B6
:100C00000011CEF2000141F82200FFE701B0704769
:100C100082B08DF8070000919DF9070000280AD4E2
:100C2000FFE7009800019DF907104EF20042CEF256
:100C3000000288540BE0009800019DF8071001F0B5
:100C40000F014EF61452CEF200028854FFE702B0B4
:100C50007047000080B582B000200190FFF7C0FD12
:100C6000FFF758FE40F20400C2F2000000684CF6A4
:100C7000CD41CCF6CC41A0FB0110C008FFF716FE19
:100C8000FFF784FCFFF780FCFFF75EFFFFF7DAFC5D
:100C900040F63A60C0F60000FFF784FFFFE740F23D
:100CA0008800C2F200000078742821D1FFE740F2EA
:100CB0007000C2F2000040F64E61C0F6000100F084
:100CC0006BF840F28801C2F200016620087040F221
:100CD0006800C2F200000090018801221046FFF770
:100CE00005FD0098018802200022FFF7FFFCFFE7C6
:100CF000D5E7000087B08DF81B000591059844F2F8
:100D0000D901884210D3FFE7059844F2D9018842FF
:100D100004D3FFE744F2D800039002E00598039063
:100D2000FFE7039802900CE00598632803D8FFE7DB
:100D30006420019002E005980190FFE7019802907D
:100D4000FFE7029804909DF81B00014600910128DE
:100D500004D0FFE70098022807D00DE0049840F681
:100D60003401C4F20001086013E0049840F6380131
:100D7000C4F2000108600CE0049840F63401C4F2AB
:100D800000010860049840F63801C4F200010860D0
:100D9000FFE707B07047000080B586B0059004916A
:100DA00041208DF80B0005980499FFF77BFA03901A
:100DB00000200190FFE7039890B1FFE70398FFF749
:100DC00063FA019A511C019140F26801C2F20001DC
:100DD00021F8120004990020FFF764FA0390EAE773
:100DE00006B080BD10B500290AD00878002807D0C9
:100DF00005487844FFF778FB002801D0002010BD9B
:100E00000248784410BD00007E000000760000001B
:100E1000F1EE100A4FF6FF71C0F2C03120EA010076
:100E200040F04070E1EE100A704700000000000042
:100E300000000102030406070809436172726F2073
:100E400056656C6F63697374612E2E2E0A002C0038
:100E5000800F00080000002008000000D4010008F6
:100E6000880F00080800002088060000F001000834
:100E70001001000043000000F8FFFFFF0040404069
:100E8000404040404040414141414140404040405D
:100E90004040404040404040404040404005020209
:100EA00002020202020202020202020202202020C8
:100EB0002020202020202002020202020202909024
:100EC0009090909010101010101010101010101022
:100ED0001010101010101010020202020202888876
:100EE0008888888808080808080808080808080882
:100EF000080808080808080802020202400000006A
:100F000000000000000000000000000000000000E1
:100F100000000000000000000000000000000000D1
:100F200000000000000000000000000000000000C1
:100F300000000000000000000000000000000000B1
:100F400000000000000000000000000000000000A1
:100F50000000000000000000000000000000000091
:100F60000000000000000000000000000000000081
:100F70000000000000000000000000000000000071
:080F8000000000000024F40051
:0400000508000249A4
:00000001FF
